{
  "_format": "hh-sol-artifact-1",
  "contractName": "EScrow",
  "sourceName": "contracts/EScrow.sol",
  "abi": [
    {
      "inputs": [
        {
          "internalType": "address",
          "name": "token",
          "type": "address"
        },
        {
          "internalType": "int64",
          "name": "serial",
          "type": "int64"
        }
      ],
      "name": "borrowing",
      "outputs": [
        {
          "internalType": "int256",
          "name": "",
          "type": "int256"
        }
      ],
      "stateMutability": "payable",
      "type": "function"
    },
    {
      "inputs": [
        {
          "internalType": "string",
          "name": "name",
          "type": "string"
        },
        {
          "internalType": "string",
          "name": "symbol",
          "type": "string"
        }
      ],
      "name": "createNFT",
      "outputs": [
        {
          "internalType": "address",
          "name": "",
          "type": "address"
        }
      ],
      "stateMutability": "payable",
      "type": "function"
    },
    {
      "inputs": [
        {
          "internalType": "address",
          "name": "token",
          "type": "address"
        }
      ],
      "name": "getTokenExpiryInfo",
      "outputs": [
        {
          "internalType": "int256",
          "name": "responseCode",
          "type": "int256"
        },
        {
          "components": [
            {
              "internalType": "uint32",
              "name": "second",
              "type": "uint32"
            },
            {
              "internalType": "address",
              "name": "autoRenewAccount",
              "type": "address"
            },
            {
              "internalType": "uint32",
              "name": "autoRenewPeriod",
              "type": "uint32"
            }
          ],
          "internalType": "struct IHederaTokenService.Expiry",
          "name": "expiryInfo",
          "type": "tuple"
        }
      ],
      "stateMutability": "nonpayable",
      "type": "function"
    },
    {
      "inputs": [
        {
          "internalType": "address",
          "name": "token",
          "type": "address"
        },
        {
          "internalType": "address",
          "name": "account",
          "type": "address"
        }
      ],
      "name": "grantTokenKyc",
      "outputs": [
        {
          "internalType": "int64",
          "name": "responseCode",
          "type": "int64"
        }
      ],
      "stateMutability": "nonpayable",
      "type": "function"
    },
    {
      "inputs": [
        {
          "internalType": "address",
          "name": "token",
          "type": "address"
        },
        {
          "internalType": "address",
          "name": "account",
          "type": "address"
        }
      ],
      "name": "isKyc",
      "outputs": [
        {
          "internalType": "int64",
          "name": "responseCode",
          "type": "int64"
        },
        {
          "internalType": "bool",
          "name": "kycGranted",
          "type": "bool"
        }
      ],
      "stateMutability": "nonpayable",
      "type": "function"
    },
    {
      "inputs": [
        {
          "internalType": "address",
          "name": "token",
          "type": "address"
        },
        {
          "internalType": "bytes[]",
          "name": "metadata",
          "type": "bytes[]"
        }
      ],
      "name": "mintNFT",
      "outputs": [
        {
          "internalType": "int64",
          "name": "",
          "type": "int64"
        }
      ],
      "stateMutability": "nonpayable",
      "type": "function"
    },
    {
      "inputs": [
        {
          "internalType": "address",
          "name": "token",
          "type": "address"
        }
      ],
      "name": "pauseToken",
      "outputs": [
        {
          "internalType": "int256",
          "name": "responseCode",
          "type": "int256"
        }
      ],
      "stateMutability": "nonpayable",
      "type": "function"
    },
    {
      "inputs": [
        {
          "internalType": "address",
          "name": "token",
          "type": "address"
        },
        {
          "internalType": "address payable",
          "name": "receiver",
          "type": "address"
        },
        {
          "internalType": "address",
          "name": "treasury",
          "type": "address"
        },
        {
          "internalType": "int64",
          "name": "serial",
          "type": "int64"
        }
      ],
      "name": "returning",
      "outputs": [
        {
          "internalType": "int256",
          "name": "",
          "type": "int256"
        }
      ],
      "stateMutability": "payable",
      "type": "function"
    },
    {
      "inputs": [
        {
          "internalType": "address",
          "name": "token",
          "type": "address"
        },
        {
          "internalType": "address",
          "name": "account",
          "type": "address"
        }
      ],
      "name": "revokeTokenKyc",
      "outputs": [
        {
          "internalType": "int64",
          "name": "responseCode",
          "type": "int64"
        }
      ],
      "stateMutability": "nonpayable",
      "type": "function"
    },
    {
      "inputs": [
        {
          "internalType": "address",
          "name": "token",
          "type": "address"
        }
      ],
      "name": "unpauseToken",
      "outputs": [
        {
          "internalType": "int256",
          "name": "responseCode",
          "type": "int256"
        }
      ],
      "stateMutability": "nonpayable",
      "type": "function"
    },
    {
      "inputs": [
        {
          "internalType": "address",
          "name": "token",
          "type": "address"
        },
        {
          "components": [
            {
              "internalType": "uint32",
              "name": "second",
              "type": "uint32"
            },
            {
              "internalType": "address",
              "name": "autoRenewAccount",
              "type": "address"
            },
            {
              "internalType": "uint32",
              "name": "autoRenewPeriod",
              "type": "uint32"
            }
          ],
          "internalType": "struct IHederaTokenService.Expiry",
          "name": "expiryInfo",
          "type": "tuple"
        }
      ],
      "name": "updateTokenExpiryInfo",
      "outputs": [
        {
          "internalType": "int256",
          "name": "responseCode",
          "type": "int256"
        }
      ],
      "stateMutability": "nonpayable",
      "type": "function"
    },
    {
      "inputs": [
        {
          "internalType": "address",
          "name": "token",
          "type": "address"
        },
        {
          "components": [
            {
              "internalType": "string",
              "name": "name",
              "type": "string"
            },
            {
              "internalType": "string",
              "name": "symbol",
              "type": "string"
            },
            {
              "internalType": "address",
              "name": "treasury",
              "type": "address"
            },
            {
              "internalType": "string",
              "name": "memo",
              "type": "string"
            },
            {
              "internalType": "bool",
              "name": "tokenSupplyType",
              "type": "bool"
            },
            {
              "internalType": "int64",
              "name": "maxSupply",
              "type": "int64"
            },
            {
              "internalType": "bool",
              "name": "freezeDefault",
              "type": "bool"
            },
            {
              "components": [
                {
                  "internalType": "uint256",
                  "name": "keyType",
                  "type": "uint256"
                },
                {
                  "components": [
                    {
                      "internalType": "bool",
                      "name": "inheritAccountKey",
                      "type": "bool"
                    },
                    {
                      "internalType": "address",
                      "name": "contractId",
                      "type": "address"
                    },
                    {
                      "internalType": "bytes",
                      "name": "ed25519",
                      "type": "bytes"
                    },
                    {
                      "internalType": "bytes",
                      "name": "ECDSA_secp256k1",
                      "type": "bytes"
                    },
                    {
                      "internalType": "address",
                      "name": "delegatableContractId",
                      "type": "address"
                    }
                  ],
                  "internalType": "struct IHederaTokenService.KeyValue",
                  "name": "key",
                  "type": "tuple"
                }
              ],
              "internalType": "struct IHederaTokenService.TokenKey[]",
              "name": "tokenKeys",
              "type": "tuple[]"
            },
            {
              "components": [
                {
                  "internalType": "uint32",
                  "name": "second",
                  "type": "uint32"
                },
                {
                  "internalType": "address",
                  "name": "autoRenewAccount",
                  "type": "address"
                },
                {
                  "internalType": "uint32",
                  "name": "autoRenewPeriod",
                  "type": "uint32"
                }
              ],
              "internalType": "struct IHederaTokenService.Expiry",
              "name": "expiry",
              "type": "tuple"
            }
          ],
          "internalType": "struct IHederaTokenService.HederaToken",
          "name": "tokenInfo",
          "type": "tuple"
        }
      ],
      "name": "updateTokenInfo",
      "outputs": [
        {
          "internalType": "int256",
          "name": "responseCode",
          "type": "int256"
        }
      ],
      "stateMutability": "nonpayable",
      "type": "function"
    }
  ],
  "bytecode": "0x608060405234801561001057600080fd5b50600160208181527fa6eef7e35abe7026729641147f7915573c7e97b47efa546f5f6e3230263bcb499190915560027fcc69885fda6bcc1a4ace058b4a62bf5e179ea78fd58a1ccd71c22cc9b688792f5560047fd9d16d34ffb15ba3a3d852f0d403e2ce1d691fb54de27ac87cd2f993f3ec330f5560087f7dfe757ecd65cbd7922a9c0161e935dd7fdbcc0e999689c7d31633896b1fc60b5560107fedc95719e9a3b28dd8e80877cb5880a9be7de1a13fc8b05e7999683b6b567643557fe2689cd4a84e23ad2f564004f1c9013e9589d260bde6380aba3ca7e09e4df40c55600660005260407f8f331abe73332f95a25873e8b430885974c0409691f89d643119a11623a7924a55611eb0806101276000396000f3fe6080604052600436106100c75760003560e01c80637c41ad2c11610074578063b135ef491161004e578063b135ef4914610210578063d614cdb814610223578063f2c31ff41461025157600080fd5b80637c41ad2c146101b05780638f8d7f99146101d0578063af99c633146101f057600080fd5b8063593d6e82116100a5578063593d6e821461015257806368613d171461017257806379b2ba3e1461019d57600080fd5b806318370d34146100cc5780633b3bff0f146100ff578063591558911461011f575b600080fd5b3480156100d857600080fd5b506100ec6100e7366004611517565b61028b565b6040519081526020015b60405180910390f35b34801561010b57600080fd5b506100ec61011a36600461165f565b610395565b34801561012b57600080fd5b5061013f61013a36600461167c565b6104b5565b60405160079190910b81526020016100f6565b34801561015e57600080fd5b506100ec61016d366004611742565b61056f565b610185610180366004611778565b61059b565b6040516001600160a01b0390911681526020016100f6565b6100ec6101ab3660046117dc565b610758565b3480156101bc57600080fd5b506100ec6101cb36600461165f565b610846565b3480156101dc57600080fd5b5061013f6101eb366004611815565b61088d565b3480156101fc57600080fd5b5061013f61020b366004611815565b6108dc565b6100ec61021e366004611843565b61092b565b34801561022f57600080fd5b5061024361023e36600461165f565b6109f1565b6040516100f692919061189f565b34801561025d57600080fd5b5061027161026c366004611815565b610b29565b6040805160079390930b83529015156020830152016100f6565b60008060006101676001600160a01b03166318370d3460e01b86866040516024016102b7929190611b17565b60408051601f198184030181529181526020820180517bffffffffffffffffffffffffffffffffffffffffffffffffffffffff167fffffffff000000000000000000000000000000000000000000000000000000009094169390931790925290516103229190611b41565b6000604051808303816000865af19150503d806000811461035f576040519150601f19603f3d011682016040523d82523d6000602084013e610364565b606091505b509150915081610375576015610389565b808060200190518101906103899190611b6f565b60030b95945050505050565b6040516001600160a01b038216602482015260009081908190610167907f3b3bff0f00000000000000000000000000000000000000000000000000000000906044015b60408051601f198184030181529181526020820180517bffffffffffffffffffffffffffffffffffffffffffffffffffffffff167fffffffff000000000000000000000000000000000000000000000000000000009094169390931790925290516104439190611b41565b6000604051808303816000865af19150503d8060008114610480576040519150601f19603f3d011682016040523d82523d6000602084013e610485565b606091505b5091509150816104965760156104aa565b808060200190518101906104aa9190611b6f565b60030b949350505050565b60008060006104c685600086610c22565b9250509150601660030b82146105495760405162461bcd60e51b815260206004820152602160248201527f4661696c656420746f206d696e74206e6f6e2d66756e6769626c6520746f6b6560448201527f6e0000000000000000000000000000000000000000000000000000000000000060648201526084015b60405180910390fd5b8060008151811061055c5761055c611b8a565b6020026020010151925050505b92915050565b60008060006101676001600160a01b031663593d6e8260e01b86866040516024016102b7929190611bb9565b604080516001808252818301909252600091829190816020015b6105bd61110a565b8152602001906001900390816105b55790505090506105df6004600130610d4d565b816000815181106105f2576105f2611b8a565b602002602001018190525061066360408051610120810182526060808252602080830182905260008385018190528284018390526080840181905260a0840181905260c0840181905260e0840183905284519283018552808352908201819052928101929092529061010082015290565b848152602080820185905260408051808301825260008082526060808601929092523083860181905260016080870152600a60a087015260e0860187905260c086018290528351928301845290825292810192909252626acfc0908201526101008201526000806106d383610d82565b90925090506016821461074e5760405162461bcd60e51b815260206004820152602360248201527f4661696c656420746f20637265617465206e6f6e2d66756e6769626c6520746f60448201527f6b656e00000000000000000000000000000000000000000000000000000000006064820152608401610540565b9695505050505050565b60006305f5e1003410156107ae5760405162461bcd60e51b815260206004820152600c60248201527f496e76616c69642046756e6400000000000000000000000000000000000000006044820152606401610540565b6107b83384610ec5565b5060006107c784303386610f14565b90506016811461083f5760405162461bcd60e51b815260206004820152602560248201527f4661696c656420746f207472616e73666572206e6f6e2d66756e6769626c652060448201527f746f6b656e0000000000000000000000000000000000000000000000000000006064820152608401610540565b9392505050565b6040516001600160a01b038216602482015260009081908190610167907f7c41ad2c00000000000000000000000000000000000000000000000000000000906044016103d8565b6040516001600160a01b0383811660248301528216604482015260009081908190610167907f8f8d7f9900000000000000000000000000000000000000000000000000000000906064016102b7565b6040516001600160a01b0383811660248301528216604482015260009081908190610167907faf99c63300000000000000000000000000000000000000000000000000000000906064016102b7565b60008061093a86868686610f14565b9050601681146109b25760405162461bcd60e51b815260206004820152602560248201527f4661696c656420746f207472616e73666572206e6f6e2d66756e6769626c652060448201527f746f6b656e0000000000000000000000000000000000000000000000000000006064820152608401610540565b6040516001600160a01b038616906000906305f5e1009082818181858883f193505050501580156109e7573d6000803e3d6000fd5b5095945050505050565b604080516060810182526000808252602080830182905282840182905283516001600160a01b038616602480830191909152855180830390910181526044909101855290810180517bffffffffffffffffffffffffffffffffffffffffffffffffffffffff167fd614cdb800000000000000000000000000000000000000000000000000000000179052925190928391829161016791610a919190611b41565b6000604051808303816000865af19150503d8060008114610ace576040519150601f19603f3d011682016040523d82523d6000602084013e610ad3565b606091505b506040805160608101825260008082526020820181905291810191909152919350915082610b0357601581610b17565b81806020019051810190610b179190611bfc565b60039190910b97909650945050505050565b604080516001600160a01b038481166024830152831660448083019190915282518083039091018152606490910182526020810180517bffffffffffffffffffffffffffffffffffffffffffffffffffffffff167ff2c31ff400000000000000000000000000000000000000000000000000000000179052905160009182918291829161016791610bb991611b41565b6000604051808303816000865af19150503d8060008114610bf6576040519150601f19603f3d011682016040523d82523d6000602084013e610bfb565b606091505b509150915081610c0e5760156000610b17565b80806020019051810190610b179190611c77565b60008060606000806101676001600160a01b031663278e0b8860e01b898989604051602401610c5393929190611ca3565b60408051601f198184030181529181526020820180517bffffffffffffffffffffffffffffffffffffffffffffffffffffffff167fffffffff00000000000000000000000000000000000000000000000000000000909416939093179092529051610cbe9190611b41565b6000604051808303816000865af19150503d8060008114610cfb576040519150601f19603f3d011682016040523d82523d6000602084013e610d00565b606091505b509150915081610d23576040805160008082526020820190925260159190610d37565b80806020019051810190610d379190611d45565b60039290920b9a90995090975095505050505050565b610d5561110a565b6040518060400160405280610d698661102a565b8152602001610d788585611069565b9052949350505050565b600080828061010001516000015163ffffffff166000148015610db257506101008101516040015163ffffffff16155b15610dc8576101008101516276a7006040909101525b6000806101676001600160a01b031634639c89bb3560e01b88604051602401610df19190611e0c565b60408051601f198184030181529181526020820180517bffffffffffffffffffffffffffffffffffffffffffffffffffffffff167fffffffff00000000000000000000000000000000000000000000000000000000909416939093179092529051610e5c9190611b41565b60006040518083038185875af1925050503d8060008114610e99576040519150601f19603f3d011682016040523d82523d6000602084013e610e9e565b606091505b509150915081610eb15760156000610b17565b80806020019051810190610b179190611e1f565b6040516001600160a01b0383811660248301528216604482015260009081908190610167907f49146bde00000000000000000000000000000000000000000000000000000000906064016102b7565b604080516001600160a01b038681166024830152858116604483015284166064820152600783900b6084808301919091528251808303909101815260a490910182526020810180517bffffffffffffffffffffffffffffffffffffffffffffffffffffffff167f5cfc90110000000000000000000000000000000000000000000000000000000017905290516000918291829161016791610fb59190611b41565b6000604051808303816000865af19150503d8060008114610ff2576040519150601f19603f3d011682016040523d82523d6000602084013e610ff7565b606091505b50915091508161100857601561101c565b8080602001905181019061101c9190611b6f565b60030b979650505050505050565b60006001600083600681111561104257611042611e4b565b600681111561105357611053611e4b565b8152602001908152602001600020549050919050565b6110af6040518060a0016040528060001515815260200160006001600160a01b03168152602001606081526020016060815260200160006001600160a01b031681525090565b60018360048111156110c3576110c3611e4b565b036110dc576001600160a01b0382166020820152610569565b60048360048111156110f0576110f0611e4b565b03610569576001600160a01b038216608082015292915050565b6040518060400160405280600081526020016111626040518060a0016040528060001515815260200160006001600160a01b03168152602001606081526020016060815260200160006001600160a01b031681525090565b905290565b6001600160a01b038116811461117c57600080fd5b50565b803561118a81611167565b919050565b7f4e487b7100000000000000000000000000000000000000000000000000000000600052604160045260246000fd5b6040805190810167ffffffffffffffff811182821017156111e1576111e161118f565b60405290565b60405160a0810167ffffffffffffffff811182821017156111e1576111e161118f565b6040516060810167ffffffffffffffff811182821017156111e1576111e161118f565b604051610120810167ffffffffffffffff811182821017156111e1576111e161118f565b604051601f8201601f1916810167ffffffffffffffff8111828210171561127a5761127a61118f565b604052919050565b600082601f83011261129357600080fd5b813567ffffffffffffffff8111156112ad576112ad61118f565b6112c06020601f19601f84011601611251565b8181528460208386010111156112d557600080fd5b816020850160208301376000918101602001919091529392505050565b801515811461117c57600080fd5b803561118a816112f2565b8060070b811461117c57600080fd5b803561118a8161130b565b600067ffffffffffffffff82111561133f5761133f61118f565b5060051b60200190565b600082601f83011261135a57600080fd5b8135602061136f61136a83611325565b611251565b82815260059290921b8401810191818101908684111561138e57600080fd5b8286015b848110156114a557803567ffffffffffffffff808211156113b257600080fd5b81890191506040601f198181858e030112156113cd57600080fd5b6113d56111be565b88850135815282850135848111156113ec57600080fd5b949094019360a0858e03830112156114045760008081fd5b61140c6111e7565b91508885013561141b816112f2565b82528483013561142a81611167565b828a0152606085810135858111156114425760008081fd5b6114508f8c838a0101611282565b858501525060809350838601358581111561146b5760008081fd5b6114798f8c838a0101611282565b82850152505061148b60a0860161117f565b928201929092528188015285525050918301918301611392565b509695505050505050565b63ffffffff8116811461117c57600080fd5b6000606082840312156114d457600080fd5b6114dc61120a565b905081356114e9816114b0565b815260208201356114f981611167565b6020820152604082013561150c816114b0565b604082015292915050565b6000806040838503121561152a57600080fd5b823561153581611167565b9150602083013567ffffffffffffffff8082111561155257600080fd5b90840190610160828703121561156757600080fd5b61156f61122d565b82358281111561157e57600080fd5b61158a88828601611282565b82525060208301358281111561159f57600080fd5b6115ab88828601611282565b6020830152506115bd6040840161117f565b60408201526060830135828111156115d457600080fd5b6115e088828601611282565b6060830152506115f260808401611300565b608082015261160360a0840161131a565b60a082015261161460c08401611300565b60c082015260e08301358281111561162b57600080fd5b61163788828601611349565b60e083015250610100915061164e878385016114c2565b828201528093505050509250929050565b60006020828403121561167157600080fd5b813561083f81611167565b6000806040838503121561168f57600080fd5b823561169a81611167565b915060208381013567ffffffffffffffff808211156116b857600080fd5b818601915086601f8301126116cc57600080fd5b81356116da61136a82611325565b81815260059190911b830184019084810190898311156116f957600080fd5b8585015b83811015611731578035858111156117155760008081fd5b6117238c89838a0101611282565b8452509186019186016116fd565b508096505050505050509250929050565b6000806080838503121561175557600080fd5b823561176081611167565b915061176f84602085016114c2565b90509250929050565b6000806040838503121561178b57600080fd5b823567ffffffffffffffff808211156117a357600080fd5b6117af86838701611282565b935060208501359150808211156117c557600080fd5b506117d285828601611282565b9150509250929050565b600080604083850312156117ef57600080fd5b82356117fa81611167565b9150602083013561180a8161130b565b809150509250929050565b6000806040838503121561182857600080fd5b823561183381611167565b9150602083013561180a81611167565b6000806000806080858703121561185957600080fd5b843561186481611167565b9350602085013561187481611167565b9250604085013561188481611167565b915060608501356118948161130b565b939692955090935050565b8281526080810161083f6020830184805163ffffffff90811683526020808301516001600160a01b03169084015260409182015116910152565b60005b838110156118f45781810151838201526020016118dc565b83811115611903576000848401525b50505050565b600081518084526119218160208601602086016118d9565b601f01601f19169290920160200192915050565b600081518084526020808501808196508360051b8101915082860160005b85811015611a0a5782840389528151604081518652868201519150808787015281511515818701528682015160606001600160a01b03808316828a015283850151935060a09250608083818b01526119ae60e08b0186611909565b928601518a84037fffffffffffffffffffffffffffffffffffffffffffffffffffffffffffffffc001858c01529294506119e88584611909565b9501511660c09890980197909752505098850198935090840190600101611953565b5091979650505050505050565b60006101608251818552611a2d82860182611909565b91505060208301518482036020860152611a478282611909565b9150506040830151611a6460408601826001600160a01b03169052565b5060608301518482036060860152611a7c8282611909565b9150506080830151611a92608086018215159052565b5060a0830151611aa760a086018260070b9052565b5060c0830151611abb60c086018215159052565b5060e083015184820360e0860152611ad38282611935565b61010085810151805163ffffffff9081168984015260208201516001600160a01b03166101208a015260408201511661014089015291935091505090949350505050565b6001600160a01b0383168152604060208201526000611b396040830184611a17565b949350505050565b60008251611b538184602087016118d9565b9190910192915050565b8051600381900b811461118a57600080fd5b600060208284031215611b8157600080fd5b61083f82611b5d565b7f4e487b7100000000000000000000000000000000000000000000000000000000600052603260045260246000fd5b6001600160a01b03831681526080810161083f6020830184805163ffffffff90811683526020808301516001600160a01b03169084015260409182015116910152565b6000808284036080811215611c1057600080fd5b611c1984611b5d565b92506060601f1982011215611c2d57600080fd5b50611c3661120a565b6020840151611c44816114b0565b81526040840151611c5481611167565b60208201526060840151611c67816114b0565b6040820152919491935090915050565b60008060408385031215611c8a57600080fd5b611c9383611b5d565b9150602083015161180a816112f2565b6000606082016001600160a01b0386168352602067ffffffffffffffff8616818501526060604085015281855180845260808601915060808160051b870101935082870160005b82811015611d36577fffffffffffffffffffffffffffffffffffffffffffffffffffffffffffffff80888703018452611d24868351611909565b95509284019290840190600101611cea565b50939998505050505050505050565b600080600060608486031215611d5a57600080fd5b611d6384611b5d565b925060208085015167ffffffffffffffff8082168214611d8257600080fd5b604087015191945080821115611d9757600080fd5b508501601f81018713611da957600080fd5b8051611db761136a82611325565b81815260059190911b82018301908381019089831115611dd657600080fd5b928401925b82841015611dfd578351611dee8161130b565b82529284019290840190611ddb565b80955050505050509250925092565b60208152600061083f6020830184611a17565b60008060408385031215611e3257600080fd5b611e3b83611b5d565b9150602083015161180a81611167565b7f4e487b7100000000000000000000000000000000000000000000000000000000600052602160045260246000fdfea2646970667358221220664c1f6c12a480ee661633e5e5200a4ee6a327a1f9ecfe58a757b49cfceed06664736f6c634300080d0033",
  "linkReferences": {},
  "deployedLinkReferences": {}
}