{
  "_format": "hh-sol-artifact-1",
  "contractName": "EScrow",
  "sourceName": "contracts/EScrow.sol",
  "abi": [
    {
      "inputs": [
        {
          "internalType": "address",
          "name": "token",
          "type": "address"
        },
        {
          "internalType": "int64",
          "name": "serial",
          "type": "int64"
        }
      ],
      "name": "borrowing",
      "outputs": [
        {
          "internalType": "int256",
          "name": "",
          "type": "int256"
        }
      ],
      "stateMutability": "payable",
      "type": "function"
    },
    {
      "inputs": [
        {
          "internalType": "string",
          "name": "name",
          "type": "string"
        },
        {
          "internalType": "string",
          "name": "symbol",
          "type": "string"
        }
      ],
      "name": "createNFT",
      "outputs": [
        {
          "internalType": "address",
          "name": "",
          "type": "address"
        }
      ],
      "stateMutability": "payable",
      "type": "function"
    },
    {
      "inputs": [
        {
          "internalType": "address",
          "name": "token",
          "type": "address"
        }
      ],
      "name": "getTokenExpiryInfo",
      "outputs": [
        {
          "internalType": "int256",
          "name": "responseCode",
          "type": "int256"
        },
        {
          "components": [
            {
              "internalType": "uint32",
              "name": "second",
              "type": "uint32"
            },
            {
              "internalType": "address",
              "name": "autoRenewAccount",
              "type": "address"
            },
            {
              "internalType": "uint32",
              "name": "autoRenewPeriod",
              "type": "uint32"
            }
          ],
          "internalType": "struct IHederaTokenService.Expiry",
          "name": "expiryInfo",
          "type": "tuple"
        }
      ],
      "stateMutability": "nonpayable",
      "type": "function"
    },
    {
      "inputs": [
        {
          "internalType": "address",
          "name": "token",
          "type": "address"
        },
        {
          "internalType": "address",
          "name": "account",
          "type": "address"
        }
      ],
      "name": "grantTokenKyc",
      "outputs": [
        {
          "internalType": "int64",
          "name": "responseCode",
          "type": "int64"
        }
      ],
      "stateMutability": "nonpayable",
      "type": "function"
    },
    {
      "inputs": [
        {
          "internalType": "address",
          "name": "token",
          "type": "address"
        },
        {
          "internalType": "address",
          "name": "account",
          "type": "address"
        }
      ],
      "name": "isKyc",
      "outputs": [
        {
          "internalType": "int64",
          "name": "responseCode",
          "type": "int64"
        },
        {
          "internalType": "bool",
          "name": "kycGranted",
          "type": "bool"
        }
      ],
      "stateMutability": "nonpayable",
      "type": "function"
    },
    {
      "inputs": [
        {
          "internalType": "address",
          "name": "token",
          "type": "address"
        },
        {
          "internalType": "bytes[]",
          "name": "metadata",
          "type": "bytes[]"
        }
      ],
      "name": "mintNFT",
      "outputs": [
        {
          "internalType": "int64",
          "name": "",
          "type": "int64"
        }
      ],
      "stateMutability": "nonpayable",
      "type": "function"
    },
    {
      "inputs": [
        {
          "internalType": "address",
          "name": "token",
          "type": "address"
        }
      ],
      "name": "pauseToken",
      "outputs": [
        {
          "internalType": "int256",
          "name": "responseCode",
          "type": "int256"
        }
      ],
      "stateMutability": "nonpayable",
      "type": "function"
    },
    {
      "inputs": [
        {
          "internalType": "address",
          "name": "token",
          "type": "address"
        },
        {
          "internalType": "int64",
          "name": "serial",
          "type": "int64"
        }
      ],
      "name": "returning",
      "outputs": [
        {
          "internalType": "int256",
          "name": "",
          "type": "int256"
        }
      ],
      "stateMutability": "payable",
      "type": "function"
    },
    {
      "inputs": [
        {
          "internalType": "address",
          "name": "token",
          "type": "address"
        },
        {
          "internalType": "address",
          "name": "account",
          "type": "address"
        }
      ],
      "name": "revokeTokenKyc",
      "outputs": [
        {
          "internalType": "int64",
          "name": "responseCode",
          "type": "int64"
        }
      ],
      "stateMutability": "nonpayable",
      "type": "function"
    },
    {
      "inputs": [
        {
          "internalType": "address",
          "name": "token",
          "type": "address"
        }
      ],
      "name": "unpauseToken",
      "outputs": [
        {
          "internalType": "int256",
          "name": "responseCode",
          "type": "int256"
        }
      ],
      "stateMutability": "nonpayable",
      "type": "function"
    },
    {
      "inputs": [
        {
          "internalType": "address",
          "name": "token",
          "type": "address"
        },
        {
          "components": [
            {
              "internalType": "uint32",
              "name": "second",
              "type": "uint32"
            },
            {
              "internalType": "address",
              "name": "autoRenewAccount",
              "type": "address"
            },
            {
              "internalType": "uint32",
              "name": "autoRenewPeriod",
              "type": "uint32"
            }
          ],
          "internalType": "struct IHederaTokenService.Expiry",
          "name": "expiryInfo",
          "type": "tuple"
        }
      ],
      "name": "updateTokenExpiryInfo",
      "outputs": [
        {
          "internalType": "int256",
          "name": "responseCode",
          "type": "int256"
        }
      ],
      "stateMutability": "nonpayable",
      "type": "function"
    },
    {
      "inputs": [
        {
          "internalType": "address",
          "name": "token",
          "type": "address"
        },
        {
          "components": [
            {
              "internalType": "string",
              "name": "name",
              "type": "string"
            },
            {
              "internalType": "string",
              "name": "symbol",
              "type": "string"
            },
            {
              "internalType": "address",
              "name": "treasury",
              "type": "address"
            },
            {
              "internalType": "string",
              "name": "memo",
              "type": "string"
            },
            {
              "internalType": "bool",
              "name": "tokenSupplyType",
              "type": "bool"
            },
            {
              "internalType": "int64",
              "name": "maxSupply",
              "type": "int64"
            },
            {
              "internalType": "bool",
              "name": "freezeDefault",
              "type": "bool"
            },
            {
              "components": [
                {
                  "internalType": "uint256",
                  "name": "keyType",
                  "type": "uint256"
                },
                {
                  "components": [
                    {
                      "internalType": "bool",
                      "name": "inheritAccountKey",
                      "type": "bool"
                    },
                    {
                      "internalType": "address",
                      "name": "contractId",
                      "type": "address"
                    },
                    {
                      "internalType": "bytes",
                      "name": "ed25519",
                      "type": "bytes"
                    },
                    {
                      "internalType": "bytes",
                      "name": "ECDSA_secp256k1",
                      "type": "bytes"
                    },
                    {
                      "internalType": "address",
                      "name": "delegatableContractId",
                      "type": "address"
                    }
                  ],
                  "internalType": "struct IHederaTokenService.KeyValue",
                  "name": "key",
                  "type": "tuple"
                }
              ],
              "internalType": "struct IHederaTokenService.TokenKey[]",
              "name": "tokenKeys",
              "type": "tuple[]"
            },
            {
              "components": [
                {
                  "internalType": "uint32",
                  "name": "second",
                  "type": "uint32"
                },
                {
                  "internalType": "address",
                  "name": "autoRenewAccount",
                  "type": "address"
                },
                {
                  "internalType": "uint32",
                  "name": "autoRenewPeriod",
                  "type": "uint32"
                }
              ],
              "internalType": "struct IHederaTokenService.Expiry",
              "name": "expiry",
              "type": "tuple"
            }
          ],
          "internalType": "struct IHederaTokenService.HederaToken",
          "name": "tokenInfo",
          "type": "tuple"
        }
      ],
      "name": "updateTokenInfo",
      "outputs": [
        {
          "internalType": "int256",
          "name": "responseCode",
          "type": "int256"
        }
      ],
      "stateMutability": "nonpayable",
      "type": "function"
    }
  ],
  "bytecode": "0x608060405234801561001057600080fd5b50600160208181527fa6eef7e35abe7026729641147f7915573c7e97b47efa546f5f6e3230263bcb499190915560027fcc69885fda6bcc1a4ace058b4a62bf5e179ea78fd58a1ccd71c22cc9b688792f5560047fd9d16d34ffb15ba3a3d852f0d403e2ce1d691fb54de27ac87cd2f993f3ec330f5560087f7dfe757ecd65cbd7922a9c0161e935dd7fdbcc0e999689c7d31633896b1fc60b5560107fedc95719e9a3b28dd8e80877cb5880a9be7de1a13fc8b05e7999683b6b567643557fe2689cd4a84e23ad2f564004f1c9013e9589d260bde6380aba3ca7e09e4df40c55600660005260407f8f331abe73332f95a25873e8b430885974c0409691f89d643119a11623a7924a55611e46806101276000396000f3fe6080604052600436106100c75760003560e01c80637c41ad2c11610074578063af99c6331161004e578063af99c63314610203578063d614cdb814610223578063f2c31ff41461025157600080fd5b80637c41ad2c146101b057806386b3f866146101d05780638f8d7f99146101e357600080fd5b8063593d6e82116100a5578063593d6e821461015257806368613d171461017257806379b2ba3e1461019d57600080fd5b806318370d34146100cc5780633b3bff0f146100ff578063591558911461011f575b600080fd5b3480156100d857600080fd5b506100ec6100e736600461150c565b61028b565b6040519081526020015b60405180910390f35b34801561010b57600080fd5b506100ec61011a366004611654565b610395565b34801561012b57600080fd5b5061013f61013a366004611671565b6104b5565b60405160079190910b81526020016100f6565b34801561015e57600080fd5b506100ec61016d366004611737565b61056f565b61018561018036600461176d565b61059b565b6040516001600160a01b0390911681526020016100f6565b6100ec6101ab3660046117d1565b610758565b3480156101bc57600080fd5b506100ec6101cb366004611654565b610846565b6100ec6101de3660046117d1565b61088d565b3480156101ef57600080fd5b5061013f6101fe36600461180a565b610948565b34801561020f57600080fd5b5061013f61021e36600461180a565b610997565b34801561022f57600080fd5b5061024361023e366004611654565b6109e6565b6040516100f6929190611838565b34801561025d57600080fd5b5061027161026c36600461180a565b610b1e565b6040805160079390930b83529015156020830152016100f6565b60008060006101676001600160a01b03166318370d3460e01b86866040516024016102b7929190611aad565b60408051601f198184030181529181526020820180517bffffffffffffffffffffffffffffffffffffffffffffffffffffffff167fffffffff000000000000000000000000000000000000000000000000000000009094169390931790925290516103229190611ad7565b6000604051808303816000865af19150503d806000811461035f576040519150601f19603f3d011682016040523d82523d6000602084013e610364565b606091505b509150915081610375576015610389565b808060200190518101906103899190611b05565b60030b95945050505050565b6040516001600160a01b038216602482015260009081908190610167907f3b3bff0f00000000000000000000000000000000000000000000000000000000906044015b60408051601f198184030181529181526020820180517bffffffffffffffffffffffffffffffffffffffffffffffffffffffff167fffffffff000000000000000000000000000000000000000000000000000000009094169390931790925290516104439190611ad7565b6000604051808303816000865af19150503d8060008114610480576040519150601f19603f3d011682016040523d82523d6000602084013e610485565b606091505b5091509150816104965760156104aa565b808060200190518101906104aa9190611b05565b60030b949350505050565b60008060006104c685600086610c17565b9250509150601660030b82146105495760405162461bcd60e51b815260206004820152602160248201527f4661696c656420746f206d696e74206e6f6e2d66756e6769626c6520746f6b6560448201527f6e0000000000000000000000000000000000000000000000000000000000000060648201526084015b60405180910390fd5b8060008151811061055c5761055c611b20565b6020026020010151925050505b92915050565b60008060006101676001600160a01b031663593d6e8260e01b86866040516024016102b7929190611b4f565b604080516001808252818301909252600091829190816020015b6105bd6110ff565b8152602001906001900390816105b55790505090506105df6004600130610d42565b816000815181106105f2576105f2611b20565b602002602001018190525061066360408051610120810182526060808252602080830182905260008385018190528284018390526080840181905260a0840181905260c0840181905260e0840183905284519283018552808352908201819052928101929092529061010082015290565b848152602080820185905260408051808301825260008082526060808601929092523083860181905260016080870152600a60a087015260e0860187905260c086018290528351928301845290825292810192909252626acfc0908201526101008201526000806106d383610d77565b90925090506016821461074e5760405162461bcd60e51b815260206004820152602360248201527f4661696c656420746f20637265617465206e6f6e2d66756e6769626c6520746f60448201527f6b656e00000000000000000000000000000000000000000000000000000000006064820152608401610540565b9695505050505050565b60006305f5e1003410156107ae5760405162461bcd60e51b815260206004820152600c60248201527f496e76616c69642046756e6400000000000000000000000000000000000000006044820152606401610540565b6107b83384610eba565b5060006107c784303386610f09565b90506016811461083f5760405162461bcd60e51b815260206004820152602560248201527f4661696c656420746f207472616e73666572206e6f6e2d66756e6769626c652060448201527f746f6b656e0000000000000000000000000000000000000000000000000000006064820152608401610540565b9392505050565b6040516001600160a01b038216602482015260009081908190610167907f7c41ad2c00000000000000000000000000000000000000000000000000000000906044016103d8565b60008061089c84333086610f09565b9050601681146109145760405162461bcd60e51b815260206004820152602560248201527f4661696c656420746f207472616e73666572206e6f6e2d66756e6769626c652060448201527f746f6b656e0000000000000000000000000000000000000000000000000000006064820152608401610540565b60405133906000906305f5e1009082818181858883f19350505050158015610940573d6000803e3d6000fd5b509392505050565b6040516001600160a01b0383811660248301528216604482015260009081908190610167907f8f8d7f9900000000000000000000000000000000000000000000000000000000906064016102b7565b6040516001600160a01b0383811660248301528216604482015260009081908190610167907faf99c63300000000000000000000000000000000000000000000000000000000906064016102b7565b604080516060810182526000808252602080830182905282840182905283516001600160a01b038616602480830191909152855180830390910181526044909101855290810180517bffffffffffffffffffffffffffffffffffffffffffffffffffffffff167fd614cdb800000000000000000000000000000000000000000000000000000000179052925190928391829161016791610a869190611ad7565b6000604051808303816000865af19150503d8060008114610ac3576040519150601f19603f3d011682016040523d82523d6000602084013e610ac8565b606091505b506040805160608101825260008082526020820181905291810191909152919350915082610af857601581610b0c565b81806020019051810190610b0c9190611b92565b60039190910b97909650945050505050565b604080516001600160a01b038481166024830152831660448083019190915282518083039091018152606490910182526020810180517bffffffffffffffffffffffffffffffffffffffffffffffffffffffff167ff2c31ff400000000000000000000000000000000000000000000000000000000179052905160009182918291829161016791610bae91611ad7565b6000604051808303816000865af19150503d8060008114610beb576040519150601f19603f3d011682016040523d82523d6000602084013e610bf0565b606091505b509150915081610c035760156000610b0c565b80806020019051810190610b0c9190611c0d565b60008060606000806101676001600160a01b031663278e0b8860e01b898989604051602401610c4893929190611c39565b60408051601f198184030181529181526020820180517bffffffffffffffffffffffffffffffffffffffffffffffffffffffff167fffffffff00000000000000000000000000000000000000000000000000000000909416939093179092529051610cb39190611ad7565b6000604051808303816000865af19150503d8060008114610cf0576040519150601f19603f3d011682016040523d82523d6000602084013e610cf5565b606091505b509150915081610d18576040805160008082526020820190925260159190610d2c565b80806020019051810190610d2c9190611cdb565b60039290920b9a90995090975095505050505050565b610d4a6110ff565b6040518060400160405280610d5e8661101f565b8152602001610d6d858561105e565b9052949350505050565b600080828061010001516000015163ffffffff166000148015610da757506101008101516040015163ffffffff16155b15610dbd576101008101516276a7006040909101525b6000806101676001600160a01b031634639c89bb3560e01b88604051602401610de69190611da2565b60408051601f198184030181529181526020820180517bffffffffffffffffffffffffffffffffffffffffffffffffffffffff167fffffffff00000000000000000000000000000000000000000000000000000000909416939093179092529051610e519190611ad7565b60006040518083038185875af1925050503d8060008114610e8e576040519150601f19603f3d011682016040523d82523d6000602084013e610e93565b606091505b509150915081610ea65760156000610b0c565b80806020019051810190610b0c9190611db5565b6040516001600160a01b0383811660248301528216604482015260009081908190610167907f49146bde00000000000000000000000000000000000000000000000000000000906064016102b7565b604080516001600160a01b038681166024830152858116604483015284166064820152600783900b6084808301919091528251808303909101815260a490910182526020810180517bffffffffffffffffffffffffffffffffffffffffffffffffffffffff167f5cfc90110000000000000000000000000000000000000000000000000000000017905290516000918291829161016791610faa9190611ad7565b6000604051808303816000865af19150503d8060008114610fe7576040519150601f19603f3d011682016040523d82523d6000602084013e610fec565b606091505b509150915081610ffd576015611011565b808060200190518101906110119190611b05565b60030b979650505050505050565b60006001600083600681111561103757611037611de1565b600681111561104857611048611de1565b8152602001908152602001600020549050919050565b6110a46040518060a0016040528060001515815260200160006001600160a01b03168152602001606081526020016060815260200160006001600160a01b031681525090565b60018360048111156110b8576110b8611de1565b036110d1576001600160a01b0382166020820152610569565b60048360048111156110e5576110e5611de1565b03610569576001600160a01b038216608082015292915050565b6040518060400160405280600081526020016111576040518060a0016040528060001515815260200160006001600160a01b03168152602001606081526020016060815260200160006001600160a01b031681525090565b905290565b6001600160a01b038116811461117157600080fd5b50565b803561117f8161115c565b919050565b7f4e487b7100000000000000000000000000000000000000000000000000000000600052604160045260246000fd5b6040805190810167ffffffffffffffff811182821017156111d6576111d6611184565b60405290565b60405160a0810167ffffffffffffffff811182821017156111d6576111d6611184565b6040516060810167ffffffffffffffff811182821017156111d6576111d6611184565b604051610120810167ffffffffffffffff811182821017156111d6576111d6611184565b604051601f8201601f1916810167ffffffffffffffff8111828210171561126f5761126f611184565b604052919050565b600082601f83011261128857600080fd5b813567ffffffffffffffff8111156112a2576112a2611184565b6112b56020601f19601f84011601611246565b8181528460208386010111156112ca57600080fd5b816020850160208301376000918101602001919091529392505050565b801515811461117157600080fd5b803561117f816112e7565b8060070b811461117157600080fd5b803561117f81611300565b600067ffffffffffffffff82111561133457611334611184565b5060051b60200190565b600082601f83011261134f57600080fd5b8135602061136461135f8361131a565b611246565b82815260059290921b8401810191818101908684111561138357600080fd5b8286015b8481101561149a57803567ffffffffffffffff808211156113a757600080fd5b81890191506040601f198181858e030112156113c257600080fd5b6113ca6111b3565b88850135815282850135848111156113e157600080fd5b949094019360a0858e03830112156113f95760008081fd5b6114016111dc565b915088850135611410816112e7565b82528483013561141f8161115c565b828a0152606085810135858111156114375760008081fd5b6114458f8c838a0101611277565b85850152506080935083860135858111156114605760008081fd5b61146e8f8c838a0101611277565b82850152505061148060a08601611174565b928201929092528188015285525050918301918301611387565b509695505050505050565b63ffffffff8116811461117157600080fd5b6000606082840312156114c957600080fd5b6114d16111ff565b905081356114de816114a5565b815260208201356114ee8161115c565b60208201526040820135611501816114a5565b604082015292915050565b6000806040838503121561151f57600080fd5b823561152a8161115c565b9150602083013567ffffffffffffffff8082111561154757600080fd5b90840190610160828703121561155c57600080fd5b611564611222565b82358281111561157357600080fd5b61157f88828601611277565b82525060208301358281111561159457600080fd5b6115a088828601611277565b6020830152506115b260408401611174565b60408201526060830135828111156115c957600080fd5b6115d588828601611277565b6060830152506115e7608084016112f5565b60808201526115f860a0840161130f565b60a082015261160960c084016112f5565b60c082015260e08301358281111561162057600080fd5b61162c8882860161133e565b60e0830152506101009150611643878385016114b7565b828201528093505050509250929050565b60006020828403121561166657600080fd5b813561083f8161115c565b6000806040838503121561168457600080fd5b823561168f8161115c565b915060208381013567ffffffffffffffff808211156116ad57600080fd5b818601915086601f8301126116c157600080fd5b81356116cf61135f8261131a565b81815260059190911b830184019084810190898311156116ee57600080fd5b8585015b838110156117265780358581111561170a5760008081fd5b6117188c89838a0101611277565b8452509186019186016116f2565b508096505050505050509250929050565b6000806080838503121561174a57600080fd5b82356117558161115c565b915061176484602085016114b7565b90509250929050565b6000806040838503121561178057600080fd5b823567ffffffffffffffff8082111561179857600080fd5b6117a486838701611277565b935060208501359150808211156117ba57600080fd5b506117c785828601611277565b9150509250929050565b600080604083850312156117e457600080fd5b82356117ef8161115c565b915060208301356117ff81611300565b809150509250929050565b6000806040838503121561181d57600080fd5b82356118288161115c565b915060208301356117ff8161115c565b8281526080810161083f6020830184805163ffffffff90811683526020808301516001600160a01b03169084015260409182015116910152565b60005b8381101561188d578181015183820152602001611875565b8381111561189c576000848401525b50505050565b600081518084526118ba816020860160208601611872565b601f01601f19169290920160200192915050565b6000815180845260208085019450848260051b860182860160005b858110156119a05783830389528151604081518552868201519150808786015281511515818601528682015160606001600160a01b038083168289015283850151935060a09250608083818a015261194460e08a01866118a2565b928601518984037fffffffffffffffffffffffffffffffffffffffffffffffffffffffffffffffc001858b015292945061197e85846118a2565b9501511660c097909701969096525050988501989250908401906001016118e9565b5090979650505050505050565b600061016082518185526119c3828601826118a2565b915050602083015184820360208601526119dd82826118a2565b91505060408301516119fa60408601826001600160a01b03169052565b5060608301518482036060860152611a1282826118a2565b9150506080830151611a28608086018215159052565b5060a0830151611a3d60a086018260070b9052565b5060c0830151611a5160c086018215159052565b5060e083015184820360e0860152611a6982826118ce565b61010085810151805163ffffffff9081168984015260208201516001600160a01b03166101208a015260408201511661014089015291935091505090949350505050565b6001600160a01b0383168152604060208201526000611acf60408301846119ad565b949350505050565b60008251611ae9818460208701611872565b9190910192915050565b8051600381900b811461117f57600080fd5b600060208284031215611b1757600080fd5b61083f82611af3565b7f4e487b7100000000000000000000000000000000000000000000000000000000600052603260045260246000fd5b6001600160a01b03831681526080810161083f6020830184805163ffffffff90811683526020808301516001600160a01b03169084015260409182015116910152565b6000808284036080811215611ba657600080fd5b611baf84611af3565b92506060601f1982011215611bc357600080fd5b50611bcc6111ff565b6020840151611bda816114a5565b81526040840151611bea8161115c565b60208201526060840151611bfd816114a5565b6040820152919491935090915050565b60008060408385031215611c2057600080fd5b611c2983611af3565b915060208301516117ff816112e7565b6000606082016001600160a01b0386168352602067ffffffffffffffff8616818501526060604085015281855180845260808601915060808160051b870101935082870160005b82811015611ccc577fffffffffffffffffffffffffffffffffffffffffffffffffffffffffffffff80888703018452611cba8683516118a2565b95509284019290840190600101611c80565b50939998505050505050505050565b600080600060608486031215611cf057600080fd5b611cf984611af3565b925060208085015167ffffffffffffffff8082168214611d1857600080fd5b604087015191945080821115611d2d57600080fd5b508501601f81018713611d3f57600080fd5b8051611d4d61135f8261131a565b81815260059190911b82018301908381019089831115611d6c57600080fd5b928401925b82841015611d93578351611d8481611300565b82529284019290840190611d71565b80955050505050509250925092565b60208152600061083f60208301846119ad565b60008060408385031215611dc857600080fd5b611dd183611af3565b915060208301516117ff8161115c565b7f4e487b7100000000000000000000000000000000000000000000000000000000600052602160045260246000fdfea2646970667358221220fe4f99efc9bb09ad644c5fb55a21960693b231d0b556ad3ec8de600d84aeb6e664736f6c634300080d0033",
  "linkReferences": {},
  "deployedLinkReferences": {}
}