{
  "_format": "hh-sol-artifact-1",
  "contractName": "EScrow",
  "sourceName": "contracts/EScrow.sol",
  "abi": [
    {
      "inputs": [
        {
          "internalType": "address",
          "name": "token",
          "type": "address"
        },
        {
          "internalType": "address",
          "name": "receiver",
          "type": "address"
        },
        {
          "internalType": "address",
          "name": "treasury",
          "type": "address"
        },
        {
          "internalType": "int64",
          "name": "serial",
          "type": "int64"
        }
      ],
      "name": "borrowing",
      "outputs": [
        {
          "internalType": "int256",
          "name": "",
          "type": "int256"
        }
      ],
      "stateMutability": "payable",
      "type": "function"
    },
    {
      "inputs": [
        {
          "internalType": "string",
          "name": "name",
          "type": "string"
        },
        {
          "internalType": "string",
          "name": "symbol",
          "type": "string"
        }
      ],
      "name": "createNFT",
      "outputs": [
        {
          "internalType": "address",
          "name": "",
          "type": "address"
        }
      ],
      "stateMutability": "payable",
      "type": "function"
    },
    {
      "inputs": [
        {
          "internalType": "address",
          "name": "token",
          "type": "address"
        }
      ],
      "name": "getTokenExpiryInfo",
      "outputs": [
        {
          "internalType": "int256",
          "name": "responseCode",
          "type": "int256"
        },
        {
          "components": [
            {
              "internalType": "uint32",
              "name": "second",
              "type": "uint32"
            },
            {
              "internalType": "address",
              "name": "autoRenewAccount",
              "type": "address"
            },
            {
              "internalType": "uint32",
              "name": "autoRenewPeriod",
              "type": "uint32"
            }
          ],
          "internalType": "struct IHederaTokenService.Expiry",
          "name": "expiryInfo",
          "type": "tuple"
        }
      ],
      "stateMutability": "nonpayable",
      "type": "function"
    },
    {
      "inputs": [
        {
          "internalType": "address",
          "name": "token",
          "type": "address"
        },
        {
          "internalType": "address",
          "name": "account",
          "type": "address"
        }
      ],
      "name": "grantTokenKyc",
      "outputs": [
        {
          "internalType": "int64",
          "name": "responseCode",
          "type": "int64"
        }
      ],
      "stateMutability": "nonpayable",
      "type": "function"
    },
    {
      "inputs": [
        {
          "internalType": "address",
          "name": "token",
          "type": "address"
        },
        {
          "internalType": "address",
          "name": "account",
          "type": "address"
        }
      ],
      "name": "isKyc",
      "outputs": [
        {
          "internalType": "int64",
          "name": "responseCode",
          "type": "int64"
        },
        {
          "internalType": "bool",
          "name": "kycGranted",
          "type": "bool"
        }
      ],
      "stateMutability": "nonpayable",
      "type": "function"
    },
    {
      "inputs": [
        {
          "internalType": "address",
          "name": "token",
          "type": "address"
        },
        {
          "internalType": "bytes[]",
          "name": "metadata",
          "type": "bytes[]"
        }
      ],
      "name": "mintNFT",
      "outputs": [
        {
          "internalType": "int64",
          "name": "",
          "type": "int64"
        }
      ],
      "stateMutability": "nonpayable",
      "type": "function"
    },
    {
      "inputs": [
        {
          "internalType": "address",
          "name": "token",
          "type": "address"
        }
      ],
      "name": "pauseToken",
      "outputs": [
        {
          "internalType": "int256",
          "name": "responseCode",
          "type": "int256"
        }
      ],
      "stateMutability": "nonpayable",
      "type": "function"
    },
    {
      "inputs": [
        {
          "internalType": "address",
          "name": "token",
          "type": "address"
        },
        {
          "internalType": "address payable",
          "name": "receiver",
          "type": "address"
        },
        {
          "internalType": "address",
          "name": "treasury",
          "type": "address"
        },
        {
          "internalType": "int64",
          "name": "serial",
          "type": "int64"
        }
      ],
      "name": "returning",
      "outputs": [
        {
          "internalType": "int256",
          "name": "",
          "type": "int256"
        }
      ],
      "stateMutability": "payable",
      "type": "function"
    },
    {
      "inputs": [
        {
          "internalType": "address",
          "name": "token",
          "type": "address"
        },
        {
          "internalType": "address",
          "name": "account",
          "type": "address"
        }
      ],
      "name": "revokeTokenKyc",
      "outputs": [
        {
          "internalType": "int64",
          "name": "responseCode",
          "type": "int64"
        }
      ],
      "stateMutability": "nonpayable",
      "type": "function"
    },
    {
      "inputs": [
        {
          "internalType": "address",
          "name": "token",
          "type": "address"
        }
      ],
      "name": "unpauseToken",
      "outputs": [
        {
          "internalType": "int256",
          "name": "responseCode",
          "type": "int256"
        }
      ],
      "stateMutability": "nonpayable",
      "type": "function"
    },
    {
      "inputs": [
        {
          "internalType": "address",
          "name": "token",
          "type": "address"
        },
        {
          "components": [
            {
              "internalType": "uint32",
              "name": "second",
              "type": "uint32"
            },
            {
              "internalType": "address",
              "name": "autoRenewAccount",
              "type": "address"
            },
            {
              "internalType": "uint32",
              "name": "autoRenewPeriod",
              "type": "uint32"
            }
          ],
          "internalType": "struct IHederaTokenService.Expiry",
          "name": "expiryInfo",
          "type": "tuple"
        }
      ],
      "name": "updateTokenExpiryInfo",
      "outputs": [
        {
          "internalType": "int256",
          "name": "responseCode",
          "type": "int256"
        }
      ],
      "stateMutability": "nonpayable",
      "type": "function"
    },
    {
      "inputs": [
        {
          "internalType": "address",
          "name": "token",
          "type": "address"
        },
        {
          "components": [
            {
              "internalType": "string",
              "name": "name",
              "type": "string"
            },
            {
              "internalType": "string",
              "name": "symbol",
              "type": "string"
            },
            {
              "internalType": "address",
              "name": "treasury",
              "type": "address"
            },
            {
              "internalType": "string",
              "name": "memo",
              "type": "string"
            },
            {
              "internalType": "bool",
              "name": "tokenSupplyType",
              "type": "bool"
            },
            {
              "internalType": "int64",
              "name": "maxSupply",
              "type": "int64"
            },
            {
              "internalType": "bool",
              "name": "freezeDefault",
              "type": "bool"
            },
            {
              "components": [
                {
                  "internalType": "uint256",
                  "name": "keyType",
                  "type": "uint256"
                },
                {
                  "components": [
                    {
                      "internalType": "bool",
                      "name": "inheritAccountKey",
                      "type": "bool"
                    },
                    {
                      "internalType": "address",
                      "name": "contractId",
                      "type": "address"
                    },
                    {
                      "internalType": "bytes",
                      "name": "ed25519",
                      "type": "bytes"
                    },
                    {
                      "internalType": "bytes",
                      "name": "ECDSA_secp256k1",
                      "type": "bytes"
                    },
                    {
                      "internalType": "address",
                      "name": "delegatableContractId",
                      "type": "address"
                    }
                  ],
                  "internalType": "struct IHederaTokenService.KeyValue",
                  "name": "key",
                  "type": "tuple"
                }
              ],
              "internalType": "struct IHederaTokenService.TokenKey[]",
              "name": "tokenKeys",
              "type": "tuple[]"
            },
            {
              "components": [
                {
                  "internalType": "uint32",
                  "name": "second",
                  "type": "uint32"
                },
                {
                  "internalType": "address",
                  "name": "autoRenewAccount",
                  "type": "address"
                },
                {
                  "internalType": "uint32",
                  "name": "autoRenewPeriod",
                  "type": "uint32"
                }
              ],
              "internalType": "struct IHederaTokenService.Expiry",
              "name": "expiry",
              "type": "tuple"
            }
          ],
          "internalType": "struct IHederaTokenService.HederaToken",
          "name": "tokenInfo",
          "type": "tuple"
        }
      ],
      "name": "updateTokenInfo",
      "outputs": [
        {
          "internalType": "int256",
          "name": "responseCode",
          "type": "int256"
        }
      ],
      "stateMutability": "nonpayable",
      "type": "function"
    }
  ],
  "bytecode": "0x608060405234801561001057600080fd5b50600160208181527fa6eef7e35abe7026729641147f7915573c7e97b47efa546f5f6e3230263bcb499190915560027fcc69885fda6bcc1a4ace058b4a62bf5e179ea78fd58a1ccd71c22cc9b688792f5560047fd9d16d34ffb15ba3a3d852f0d403e2ce1d691fb54de27ac87cd2f993f3ec330f5560087f7dfe757ecd65cbd7922a9c0161e935dd7fdbcc0e999689c7d31633896b1fc60b5560107fedc95719e9a3b28dd8e80877cb5880a9be7de1a13fc8b05e7999683b6b567643557fe2689cd4a84e23ad2f564004f1c9013e9589d260bde6380aba3ca7e09e4df40c55600660005260407f8f331abe73332f95a25873e8b430885974c0409691f89d643119a11623a7924a55611e67806101276000396000f3fe6080604052600436106100c75760003560e01c80638f8d7f9911610074578063b135ef491161004e578063b135ef4914610210578063d614cdb814610223578063f2c31ff41461025157600080fd5b80638f8d7f99146101bd5780639020fbf1146101dd578063af99c633146101f057600080fd5b8063593d6e82116100a5578063593d6e821461015257806368613d17146101725780637c41ad2c1461019d57600080fd5b806318370d34146100cc5780633b3bff0f146100ff578063591558911461011f575b600080fd5b3480156100d857600080fd5b506100ec6100e73660046114f5565b61028b565b6040519081526020015b60405180910390f35b34801561010b57600080fd5b506100ec61011a36600461163d565b610395565b34801561012b57600080fd5b5061013f61013a366004611661565b6104b5565b60405160079190910b81526020016100f6565b34801561015e57600080fd5b506100ec61016d366004611727565b61056f565b61018561018036600461175d565b61059b565b6040516001600160a01b0390911681526020016100f6565b3480156101a957600080fd5b506100ec6101b836600461163d565b610734565b3480156101c957600080fd5b5061013f6101d83660046117c1565b61077b565b6100ec6101eb3660046117fa565b6107ca565b3480156101fc57600080fd5b5061013f61020b3660046117c1565b6108ba565b6100ec61021e3660046117fa565b610909565b34801561022f57600080fd5b5061024361023e36600461163d565b6109cf565b6040516100f6929190611856565b34801561025d57600080fd5b5061027161026c3660046117c1565b610b07565b6040805160079390930b83529015156020830152016100f6565b60008060006101676001600160a01b03166318370d3460e01b86866040516024016102b7929190611ace565b60408051601f198184030181529181526020820180517bffffffffffffffffffffffffffffffffffffffffffffffffffffffff167fffffffff000000000000000000000000000000000000000000000000000000009094169390931790925290516103229190611af8565b6000604051808303816000865af19150503d806000811461035f576040519150601f19603f3d011682016040523d82523d6000602084013e610364565b606091505b509150915081610375576015610389565b808060200190518101906103899190611b26565b60030b95945050505050565b6040516001600160a01b038216602482015260009081908190610167907f3b3bff0f00000000000000000000000000000000000000000000000000000000906044015b60408051601f198184030181529181526020820180517bffffffffffffffffffffffffffffffffffffffffffffffffffffffff167fffffffff000000000000000000000000000000000000000000000000000000009094169390931790925290516104439190611af8565b6000604051808303816000865af19150503d8060008114610480576040519150601f19603f3d011682016040523d82523d6000602084013e610485565b606091505b5091509150816104965760156104aa565b808060200190518101906104aa9190611b26565b60030b949350505050565b60008060006104c685600086610c00565b9250509150601660030b82146105495760405162461bcd60e51b815260206004820152602160248201527f4661696c656420746f206d696e74206e6f6e2d66756e6769626c6520746f6b6560448201527f6e0000000000000000000000000000000000000000000000000000000000000060648201526084015b60405180910390fd5b8060008151811061055c5761055c611b41565b6020026020010151925050505b92915050565b60008060006101676001600160a01b031663593d6e8260e01b86866040516024016102b7929190611b70565b604080516001808252818301909252600091829190816020015b6105bd6110e8565b8152602001906001900390816105b55790505090506105df6004600130610d2b565b816000815181106105f2576105f2611b41565b602002602001018190525061066360408051610120810182526060808252602080830182905260008385018190528284018390526080840181905260a0840181905260c0840181905260e0840183905284519283018552808352908201819052928101929092529061010082015290565b848152602080820185905260408051918201815260008083526060840192909252309083015260016080830152600a60a083015260e0820183905260c08201819052806106af83610d60565b90925090506016821461072a5760405162461bcd60e51b815260206004820152602360248201527f4661696c656420746f20637265617465206e6f6e2d66756e6769626c6520746f60448201527f6b656e00000000000000000000000000000000000000000000000000000000006064820152608401610540565b9695505050505050565b6040516001600160a01b038216602482015260009081908190610167907f7c41ad2c00000000000000000000000000000000000000000000000000000000906044016103d8565b6040516001600160a01b0383811660248301528216604482015260009081908190610167907f8f8d7f9900000000000000000000000000000000000000000000000000000000906064016102b7565b60006305f5e1003410156108205760405162461bcd60e51b815260206004820152600c60248201527f496e76616c69642046756e6400000000000000000000000000000000000000006044820152606401610540565b61082a8486610ea3565b50600061083986858786610ef2565b9050601681146108b15760405162461bcd60e51b815260206004820152602560248201527f4661696c656420746f207472616e73666572206e6f6e2d66756e6769626c652060448201527f746f6b656e0000000000000000000000000000000000000000000000000000006064820152608401610540565b95945050505050565b6040516001600160a01b0383811660248301528216604482015260009081908190610167907faf99c63300000000000000000000000000000000000000000000000000000000906064016102b7565b60008061091886868686610ef2565b9050601681146109905760405162461bcd60e51b815260206004820152602560248201527f4661696c656420746f207472616e73666572206e6f6e2d66756e6769626c652060448201527f746f6b656e0000000000000000000000000000000000000000000000000000006064820152608401610540565b6040516001600160a01b038616906000906305f5e1009082818181858883f193505050501580156109c5573d6000803e3d6000fd5b5095945050505050565b604080516060810182526000808252602080830182905282840182905283516001600160a01b038616602480830191909152855180830390910181526044909101855290810180517bffffffffffffffffffffffffffffffffffffffffffffffffffffffff167fd614cdb800000000000000000000000000000000000000000000000000000000179052925190928391829161016791610a6f9190611af8565b6000604051808303816000865af19150503d8060008114610aac576040519150601f19603f3d011682016040523d82523d6000602084013e610ab1565b606091505b506040805160608101825260008082526020820181905291810191909152919350915082610ae157601581610af5565b81806020019051810190610af59190611bb3565b60039190910b97909650945050505050565b604080516001600160a01b038481166024830152831660448083019190915282518083039091018152606490910182526020810180517bffffffffffffffffffffffffffffffffffffffffffffffffffffffff167ff2c31ff400000000000000000000000000000000000000000000000000000000179052905160009182918291829161016791610b9791611af8565b6000604051808303816000865af19150503d8060008114610bd4576040519150601f19603f3d011682016040523d82523d6000602084013e610bd9565b606091505b509150915081610bec5760156000610af5565b80806020019051810190610af59190611c2e565b60008060606000806101676001600160a01b031663278e0b8860e01b898989604051602401610c3193929190611c5a565b60408051601f198184030181529181526020820180517bffffffffffffffffffffffffffffffffffffffffffffffffffffffff167fffffffff00000000000000000000000000000000000000000000000000000000909416939093179092529051610c9c9190611af8565b6000604051808303816000865af19150503d8060008114610cd9576040519150601f19603f3d011682016040523d82523d6000602084013e610cde565b606091505b509150915081610d01576040805160008082526020820190925260159190610d15565b80806020019051810190610d159190611cfc565b60039290920b9a90995090975095505050505050565b610d336110e8565b6040518060400160405280610d4786611008565b8152602001610d568585611047565b9052949350505050565b600080828061010001516000015163ffffffff166000148015610d9057506101008101516040015163ffffffff16155b15610da6576101008101516276a7006040909101525b6000806101676001600160a01b031634639c89bb3560e01b88604051602401610dcf9190611dc3565b60408051601f198184030181529181526020820180517bffffffffffffffffffffffffffffffffffffffffffffffffffffffff167fffffffff00000000000000000000000000000000000000000000000000000000909416939093179092529051610e3a9190611af8565b60006040518083038185875af1925050503d8060008114610e77576040519150601f19603f3d011682016040523d82523d6000602084013e610e7c565b606091505b509150915081610e8f5760156000610af5565b80806020019051810190610af59190611dd6565b6040516001600160a01b0383811660248301528216604482015260009081908190610167907f49146bde00000000000000000000000000000000000000000000000000000000906064016102b7565b604080516001600160a01b038681166024830152858116604483015284166064820152600783900b6084808301919091528251808303909101815260a490910182526020810180517bffffffffffffffffffffffffffffffffffffffffffffffffffffffff167f5cfc90110000000000000000000000000000000000000000000000000000000017905290516000918291829161016791610f939190611af8565b6000604051808303816000865af19150503d8060008114610fd0576040519150601f19603f3d011682016040523d82523d6000602084013e610fd5565b606091505b509150915081610fe6576015610ffa565b80806020019051810190610ffa9190611b26565b60030b979650505050505050565b60006001600083600681111561102057611020611e02565b600681111561103157611031611e02565b8152602001908152602001600020549050919050565b61108d6040518060a0016040528060001515815260200160006001600160a01b03168152602001606081526020016060815260200160006001600160a01b031681525090565b60018360048111156110a1576110a1611e02565b036110ba576001600160a01b0382166020820152610569565b60048360048111156110ce576110ce611e02565b03610569576001600160a01b038216608082015292915050565b6040518060400160405280600081526020016111406040518060a0016040528060001515815260200160006001600160a01b03168152602001606081526020016060815260200160006001600160a01b031681525090565b905290565b6001600160a01b038116811461115a57600080fd5b50565b803561116881611145565b919050565b7f4e487b7100000000000000000000000000000000000000000000000000000000600052604160045260246000fd5b6040805190810167ffffffffffffffff811182821017156111bf576111bf61116d565b60405290565b60405160a0810167ffffffffffffffff811182821017156111bf576111bf61116d565b6040516060810167ffffffffffffffff811182821017156111bf576111bf61116d565b604051610120810167ffffffffffffffff811182821017156111bf576111bf61116d565b604051601f8201601f1916810167ffffffffffffffff811182821017156112585761125861116d565b604052919050565b600082601f83011261127157600080fd5b813567ffffffffffffffff81111561128b5761128b61116d565b61129e6020601f19601f8401160161122f565b8181528460208386010111156112b357600080fd5b816020850160208301376000918101602001919091529392505050565b801515811461115a57600080fd5b8035611168816112d0565b8060070b811461115a57600080fd5b8035611168816112e9565b600067ffffffffffffffff82111561131d5761131d61116d565b5060051b60200190565b600082601f83011261133857600080fd5b8135602061134d61134883611303565b61122f565b82815260059290921b8401810191818101908684111561136c57600080fd5b8286015b8481101561148357803567ffffffffffffffff8082111561139057600080fd5b81890191506040601f198181858e030112156113ab57600080fd5b6113b361119c565b88850135815282850135848111156113ca57600080fd5b949094019360a0858e03830112156113e25760008081fd5b6113ea6111c5565b9150888501356113f9816112d0565b82528483013561140881611145565b828a0152606085810135858111156114205760008081fd5b61142e8f8c838a0101611260565b85850152506080935083860135858111156114495760008081fd5b6114578f8c838a0101611260565b82850152505061146960a0860161115d565b928201929092528188015285525050918301918301611370565b509695505050505050565b63ffffffff8116811461115a57600080fd5b6000606082840312156114b257600080fd5b6114ba6111e8565b905081356114c78161148e565b815260208201356114d781611145565b602082015260408201356114ea8161148e565b604082015292915050565b6000806040838503121561150857600080fd5b823561151381611145565b9150602083013567ffffffffffffffff8082111561153057600080fd5b90840190610160828703121561154557600080fd5b61154d61120b565b82358281111561155c57600080fd5b61156888828601611260565b82525060208301358281111561157d57600080fd5b61158988828601611260565b60208301525061159b6040840161115d565b60408201526060830135828111156115b257600080fd5b6115be88828601611260565b6060830152506115d0608084016112de565b60808201526115e160a084016112f8565b60a08201526115f260c084016112de565b60c082015260e08301358281111561160957600080fd5b61161588828601611327565b60e083015250610100915061162c878385016114a0565b828201528093505050509250929050565b60006020828403121561164f57600080fd5b813561165a81611145565b9392505050565b6000806040838503121561167457600080fd5b823561167f81611145565b915060208381013567ffffffffffffffff8082111561169d57600080fd5b818601915086601f8301126116b157600080fd5b81356116bf61134882611303565b81815260059190911b830184019084810190898311156116de57600080fd5b8585015b83811015611716578035858111156116fa5760008081fd5b6117088c89838a0101611260565b8452509186019186016116e2565b508096505050505050509250929050565b6000806080838503121561173a57600080fd5b823561174581611145565b915061175484602085016114a0565b90509250929050565b6000806040838503121561177057600080fd5b823567ffffffffffffffff8082111561178857600080fd5b61179486838701611260565b935060208501359150808211156117aa57600080fd5b506117b785828601611260565b9150509250929050565b600080604083850312156117d457600080fd5b82356117df81611145565b915060208301356117ef81611145565b809150509250929050565b6000806000806080858703121561181057600080fd5b843561181b81611145565b9350602085013561182b81611145565b9250604085013561183b81611145565b9150606085013561184b816112e9565b939692955090935050565b8281526080810161165a6020830184805163ffffffff90811683526020808301516001600160a01b03169084015260409182015116910152565b60005b838110156118ab578181015183820152602001611893565b838111156118ba576000848401525b50505050565b600081518084526118d8816020860160208601611890565b601f01601f19169290920160200192915050565b600081518084526020808501808196508360051b8101915082860160005b858110156119c15782840389528151604081518652868201519150808787015281511515818701528682015160606001600160a01b03808316828a015283850151935060a09250608083818b015261196560e08b01866118c0565b928601518a84037fffffffffffffffffffffffffffffffffffffffffffffffffffffffffffffffc001858c015292945061199f85846118c0565b9501511660c0989098019790975250509885019893509084019060010161190a565b5091979650505050505050565b600061016082518185526119e4828601826118c0565b915050602083015184820360208601526119fe82826118c0565b9150506040830151611a1b60408601826001600160a01b03169052565b5060608301518482036060860152611a3382826118c0565b9150506080830151611a49608086018215159052565b5060a0830151611a5e60a086018260070b9052565b5060c0830151611a7260c086018215159052565b5060e083015184820360e0860152611a8a82826118ec565b61010085810151805163ffffffff9081168984015260208201516001600160a01b03166101208a015260408201511661014089015291935091505090949350505050565b6001600160a01b0383168152604060208201526000611af060408301846119ce565b949350505050565b60008251611b0a818460208701611890565b9190910192915050565b8051600381900b811461116857600080fd5b600060208284031215611b3857600080fd5b61165a82611b14565b7f4e487b7100000000000000000000000000000000000000000000000000000000600052603260045260246000fd5b6001600160a01b03831681526080810161165a6020830184805163ffffffff90811683526020808301516001600160a01b03169084015260409182015116910152565b6000808284036080811215611bc757600080fd5b611bd084611b14565b92506060601f1982011215611be457600080fd5b50611bed6111e8565b6020840151611bfb8161148e565b81526040840151611c0b81611145565b60208201526060840151611c1e8161148e565b6040820152919491935090915050565b60008060408385031215611c4157600080fd5b611c4a83611b14565b915060208301516117ef816112d0565b6000606082016001600160a01b0386168352602067ffffffffffffffff8616818501526060604085015281855180845260808601915060808160051b870101935082870160005b82811015611ced577fffffffffffffffffffffffffffffffffffffffffffffffffffffffffffffff80888703018452611cdb8683516118c0565b95509284019290840190600101611ca1565b50939998505050505050505050565b600080600060608486031215611d1157600080fd5b611d1a84611b14565b925060208085015167ffffffffffffffff8082168214611d3957600080fd5b604087015191945080821115611d4e57600080fd5b508501601f81018713611d6057600080fd5b8051611d6e61134882611303565b81815260059190911b82018301908381019089831115611d8d57600080fd5b928401925b82841015611db4578351611da5816112e9565b82529284019290840190611d92565b80955050505050509250925092565b60208152600061165a60208301846119ce565b60008060408385031215611de957600080fd5b611df283611b14565b915060208301516117ef81611145565b7f4e487b7100000000000000000000000000000000000000000000000000000000600052602160045260246000fdfea264697066735822122094df52d196344489fb01f173b5a914d5fb61e59b0f2c5554d7451a9ef6fe493e64736f6c634300080d0033",
  "linkReferences": {},
  "deployedLinkReferences": {}
}